:020000040800F2
:100000006806002021020008290200082B020008CF
:100010002D0200082F020008310200080000000035
:100020000000000000000000000000003302000893
:1000300035020008000000003702000839020008FD
:100040003B0200083B0200083B0200083B0200089C
:100050003B0200083B0200083B0200083B0200088C
:100060003B0200083B0200083B0200083B0200087C
:100070003B0200083B0200083B0200083B0200086C
:100080003B0200083B0200083B02000800000000A1
:100090000000000000000000000000003B0200081B
:1000A0003B0200083B0200083B0200083B0200083C
:1000B0003B0200083B0200083B0200083B0200082C
:1000C0003B0200083B0200083B0200083B0200081C
:1000D0003B0200083B0200083B0200080000000051
:1000E0003B0200083B0200083B0200080000000041
:1000F0000000000000000000000000003B020008BB
:10010000000000003B0200083B0200083B02000820
:1001100000000000000000000000000000000000DF
:100120003B0200083B0200083B0200083B020008BB
:100130003B0200080000000000000000000000007A
:100140000000000000000000000000003B0200086A
:100150003B0200083B0200083B0200083B0200088B
:100160003B0200083B020008000000000000000005
:10017000000000000000000000000000000000007F
:10018000000000003B02000800000000000000002A
:100190003B02000800F002F800F033F80AA090E8F3
:1001A000000C82448344AAF10107DA4501D100F032
:1001B00028F8AFF2090EBAE80F0013F0010F18BFCC
:1001C000FB1A43F001031847700700008007000086
:1001D0000023002400250026103A28BF78C1FBD850
:1001E000520728BF30C148BF0B607047752900F027
:1001F0007F80002070471FB500F090FB1FBD10B539
:1002000010BD00F02AF91146FFF7F5FF00F06CF978
:1002100000F048F903B4FFF7F2FF03BC00F050F917
:100220000948804709480047FEE7FEE7FEE7FEE78A
:10023000FEE7FEE7FEE7FEE7FEE7FEE704480549C6
:10024000054A064B70470000D104000895010008DC
:100250006800002068060020680200206802002074
:100260000FB41CB5074B06AA7B446946009005985D
:1002700000F0DBF80020694600F0EAF81CBC5DF8ED
:1002800014FB0000E50100002DE9F0410E46044694
:10029000002020622046E168884730B3252805D039
:1002A000D4E901219047206A401CF2E7E16820462A
:1002B00000278847050018D0A5F14100192802D869
:1002C00020354FF400673246294620462760FFF765
:1002D0008DFF40B1012804D0F61D26F00706083630
:1002E000D8E7361DD6E72846DAE7206ABDE8F08170
:1002F0002DE9F0410646002410687529314616A5FF
:1003000010D0AFF30080002802DA404213A507E0C6
:1003100031688A0701D512A502E0490704D511A565
:10032000012401E0AFF3008000210A2206F1240736
:1003300009E0B0FBF2FCB0FBF2F302FB1C00303032
:1003400078541846491C0028F3D123462A463046E3
:10035000BDE8F04100F00BB8000000002D000000E7
:100360002B000000200000007047704770472DE907
:10037000F0470D4699469246044600F1240801686C
:10038000880604D5E06921F01001216000E0012019
:10039000A84201DD471B00E00027A1697A1902EBA2
:1003A0000900081AA0612078C00602D42046AFF3E5
:1003B0000080002608E0D4E901211AF806009047E1
:1003C000206A401C761C20624E45F4DB2078C00673
:1003D0000AD52046AFF3008006E0D4E901213020A1
:1003E0009047206A401C2062381EA7F10107F4DC08
:1003F00007E0D4E9012118F805009047206A401C65
:100400002062281EA5F10105F3DC2046AFF3008031
:100410002078000602D50220BDE8F0870120FBE726
:1004200001694A1C02610878704700B58FB0CDE9B8
:1004300001310021059105497944CDE903101146A8
:100440006846FFF721FF0FB000BD0000E5FFFFFF8A
:100450000A6802F8010B0A607047754600F02CF834
:10046000AE4605006946534620F00700854618B0A1
:1004700020B5FFF7E3FEBDE820404FF000064FF047
:1004800000074FF000084FF0000BAC46ACE8C00985
:10049000ACE8C009ACE8C009ACE8C00921F007012C
:1004A0008D46704710B50446AFF300802046BDE886
:1004B0001040FFF7AFBE000000487047000000206A
:1004C00001491820ABBEFEE726000200704700007D
:1004D0004EF68850CEF20000016841F470010160D0
:1004E000704700000000000043F61000C4F2020054
:1004F000016A42F2080741F0010101620021C4F2E1
:1005000002010A68C4F2010722F440620A600A6824
:10051000012342F00C020A60426B9FED2D0B42F466
:100520008072426300223A60FB627A623A6840F26B
:10053000600842F001023A60026BC2F2000842F425
:10054000003202630A6855EC104B42F020020A6048
:100550008A6842F020028A600A6A42F4E0620A6213
:10056000016841F400310160016821F4003101604B
:1005700044F20C40C4F20000016841F400510160F3
:1005800040F2836140F8041C016841F008010160F9
:10059000386840F08040386057F8080C10F00E0FB3
:1005A000FAD07E6C304600F0A7F841EC100B3046D4
:1005B00088ED000B00F089F822462B4600F0B0F8D9
:1005C00000F056F800F01CF800F006F8E0E700BF75
:1005D0005839B4C876BEBF3F80B502A0042100F0F0
:1005E00039F880BD0A0D000044F20041C4F2000158
:1005F0006FF35F20486000BF08684006FCD5704775
:100600002DE9F04103AF0246002401280DDB46F23C
:100610006760C6F26660114651FB00F39D10092920
:1006200005EBD37104F10104F6DCE01D20F00700B6
:10063000ADEB0005AD4606A12846FFF711FE2846A2
:10064000214600F007F8A7F10C04A546BDE8F081AB
:1006500025750000B0B50129B8BFB0BD0C46451ED8
:1006600015F8010FFFF7C0FF013CF9D1B0BD000044
:100670004FEA1153A3F58063D3F11E03A8BFD3F152
:10068000200C08DB4FF0004242EAC12252EA5052ED
:1006900032FA03F0704709420BD4102BC4BF00207C
:1006A000704703F5787CBCF1FF3F05D04FF0FF3079
:1006B00070474FF00000704770B500F0DBF800BFE6
:1006C0004992248000207047F0E710F0004248BFB4
:1006D0004042B0FA80F310FA03F10AD0C3F11D03CF
:1006E00003F5806302EB03524FEA415002EBD12144
:1006F00070474FF000007047B0FA80F310FA03F132
:100700000AD0C3F11D0303F580634FEA03524FEA99
:10071000415002EBD12170474FF0000070470000BC
:1007200070B5DFF848C11CEA111E1EBF1CEA131584
:100730009EEA0C0F95EA0C0F00F06F8081EA03042B
:100740004EEAD47EAE4421EA4C1123EA4C1341F424
:10075000801143F48013AEF17F7EA1FB024CA0FB1D
:100760000365361955EB0C05A1FB034C4CF1000356
:10077000A0FB021C16EB0C06654153F10003094275
:1007800018BF46F0010613F4007F0BD14FEA033186
:100790004FEA053041EA155140EA165034036FF034
:1007A00003020AE04FEAC3214FEAC52041EA55514E
:1007B00040EA5650F4026FF0020202EB2E4201EBC7
:1007C000025585EACE710AD05FEA440C18BF24F0C6
:1007D000004450F1000041F1000120EAD47040F2E1
:1007E000FE7C624500D270BDA84214BF4FF0804429
:1007F0004FF04044002E08BF0024BEF1806FA8BF18
:10080000A1F1C041BDE8704080F2828001F1C04199
:1008100001F000414FF0000070470CEA13159EEA0A
:100820000C0F18BF95EA0C0F06D081EA030E4FF0AB
:1008300000000EF0004170BD00F01CF88900013E80
:1008400000F007B800F009B84FEA430C5FEA5C5CBF
:1008500008D081EA030100F05BB84FEA410C5FEA7F
:100860005C5CF6D102494FF0000070470000FF07C2
:100870000000F87F0EF1020E2EF0030E5EF8046BFE
:10088000364205D4012A43EB030515F5001F12D8A3
:10089000012841EB010C1CF5001F0CD80ED14FEACA
:1008A000D17C0CEB4C0C0CF1020C15F5001F08BFB1
:1008B0004CEBD37C04E04FF0080C01E04FEAD37C12
:1008C0000CEB4C0526FA05F606F00706B6F1040C0B
:1008D00006D20EEB860CBDE870404CF0010C604770
:1008E000DFE80CF0090B02024FF00041A1F50021F6
:1008F0004FF0000070BD19461046012851EB01046D
:1009000018BFD4F5001484BF002001F0004170BD71
:100910000808A0F500114FEA31017047F1EE100A06
:100920004FF6FF71C0F2C03120EA010040F0407084
:10093000E1EE100A7047000048090008000000209E
:0809400068060000D001000868
:040000050800019559
:00000001FF
