:020000040800F2
:1000000078060020350200083D0200083F02000883
:1000100041020008430200084502000800000000F9
:10002000000000000000000000000000470200087F
:1000300049020008000000004B0200084D020008C1
:100040004F0200084F0200084F0200084F0200084C
:100050004F0200084F0200084F0200084F0200083C
:100060004F0200084F0200084F0200084F0200082C
:100070004F0200084F0200084F0200084F0200081C
:100080004F0200084F0200084F0200080000000065
:100090000000000000000000000000004F02000807
:1000A0004F0200084F0200084F0200084F020008EC
:1000B0004F0200084F0200084F0200084F020008DC
:1000C0004F0200084F0200084F0200084F020008CC
:1000D0004F0200084F0200084F0200080000000015
:1000E0004F0200084F0200084F0200080000000005
:1000F0000000000000000000000000004F020008A7
:10010000000000004F0200084F0200084F020008E4
:1001100000000000000000000000000000000000DF
:100120004F0200084F0200084F0200084F0200086B
:100130004F02000800000000000000000000000066
:100140000000000000000000000000004F02000856
:100150004F0200084F0200084F0200084F0200083B
:100160004F0200084F0200080000000000000000DD
:10017000000000000000000000000000000000007F
:10018000000000004F020008000000000000000016
:100190004F02000800F002F800F03CF80AA090E8D6
:1001A000000C82448344AAF10107DA4501D100F032
:1001B00031F8AFF2090EBAE80F0013F0010F18BFC3
:1001C000FB1A43F00103184788040000A80400004C
:1001D000103A24BF78C878C1FAD8520724BF30C873
:1001E00030C144BF04680C60704700000023002445
:1001F00000250026103A28BF78C1FBD8520728BF37
:1002000030C148BF0B6070471FB500F014FA1FBD26
:1002100010B510BD00F031F81146FFF7F5FF00F002
:100220006BF900F04FF803B4FFF7F2FF03BC00F0E6
:1002300057F800000948804709480047FEE7FEE7F5
:10024000FEE7FEE7FEE7FEE7FEE7FEE7FEE7FEE786
:1002500004480549054A064B704700006904000838
:100260009501000878000020780600207802002020
:1002700078020020704770477047754600F02CF8F0
:10028000AE4605006946534620F00700854618B083
:1002900020B5FFF7DDFFBDE820404FF000064FF02E
:1002A00000074FF000084FF0000BAC46ACE8C00967
:1002B000ACE8C009ACE8C009ACE8C00921F007010E
:1002C0008D46704710B50446AFF300802046BDE868
:1002D0001040FFF7A8BF000000487047080000204A
:1002E00001491820ABBEFEE726000200704700005F
:1002F00010B540F20000C2F20000092140F20404EF
:100300000160C2F20004207858B1207802280FD092
:100310002078032818BF10BD00F02CF802202070B0
:1003200010BD40F20504C2F200042078022804D176
:1003300000F00CF80320207010BD20780328EFD1C6
:1003400000F018F80220207010BD00001420C4F244
:100350000200016821F480610160016841F40071CC
:100360000160016841F080010160016821F4807141
:10037000016070471420C4F20200016841F48061FA
:100380000160016821F400710160016821F08001C1
:100390000160016841F48071016070472DE9F0410E
:1003A00081B000900098012853DB40F2104140F2E8
:1003B0006C0240F2040340F2050C40F2700E40F271
:1003C00068050020C4F20201C2F20002C2F200037A
:1003D000C2F2000CC2F2000E4FF00108C2F200059A
:1003E000002607E083F80080CEF80080009C0136EC
:1003F000A6422EDA009F012FF8DB002707E000BF9E
:100400001468042CEED0009C0137A742EEDA0C6889
:10041000E40713D10C68A407F5D5146801341460FF
:100420000C68A407FCD41468032CE9D11C788CF860
:1004300000401870CEF80000E2E700BF2C680134DD
:100440002C6000BF0C68E407FCD12C68022CDAD1C8
:10045000CAE701B0BDE8F0811420C4F202000168CF
:1004600021F07F01016070474EF68850CEF2000007
:10047000016841F4700101607047000040F2000023
:10048000C2F200000068092888BF704704A151F833
:1004900020001421C4F202010A681043086070476A
:1004A0003F000000060000005B0000004F0000005D
:1004B000660000006D0000007D00000007000000E5
:1004C0007F0000006F0000001420C4F202000168E9
:1004D00041F480610160016821F4007101600168EC
:1004E00021F080010160016841F4807101600168C0
:1004F00041F40061016070471424C4F2020400F06A
:1005000065F8FFF7BBFFFFF7DFFF40F2040540F29D
:10051000700940F2050840F2000640F26C0A40F211
:10052000680BC2F20005C2F200090027C2F20008FF
:10053000C2F20006C2F2000AC2F2000B04E000BFE1
:10054000206820F4006020604FF47A70FFF726FFE7
:10055000287878B1287801281AD198F800002870F6
:10056000306801383060C9F80070CAF80070CBF804
:1005700000701DE0D9F800000128E1D1FFF76CFF01
:10058000FFF7B6FEFFF77AFFC9F80070D8E700BFA3
:10059000D9F8000040B1C9F80070CAF80070CBF873
:1005A0000070FFF7A5FE03E030680138306000BF3F
:1005B0003068002808BFFFF79BFEFFF74DFFFFF7ED
:1005C0005DFF206840F400602060BDE743F6300026
:1005D000C4F20200016840F2004241F001010160F2
:1005E000016845F2555341F0020101604FF60041A8
:1005F000CFF6FF71C4F20202C0F2550353501168E6
:100600000021116040F20C41C4F202010A6822F09C
:1006100001020A600A6842F002020A600A6822F0D7
:1006200004020A600A6842F008020A60416941F463
:10063000804141617047F1EE100A4FF6FF71C0F240
:10064000C03120EA010040F04070E1EE100A70472E
:10065000700600080000002008000000D00100081B
:10066000780600080800002070060000EC01000871
:08067000090000000202000075
:040000050800019559
:00000001FF
