:020000040800F2
:1000000010070020350200080F1400086D110008C9
:100010000D1400082B040008FF1600080000000063
:10002000000000000000000000000000351400087F
:1000300093040008000000001114000809150008CE
:100040004F0200084F0200084F0200084F0200084C
:100050004F0200084F020008BB040008C10400085A
:10006000C70400084F0200084F0200084F020008B2
:100070004F0200084F0200084F0200084F0200081C
:100080004F0200084F0200084F0200080000000065
:100090000000000000000000000000004F02000807
:1000A0004F0200084F0200084F0200084F020008EC
:1000B0004F020008A1150008B51500084F020008FE
:1000C0004F0200084F0200084F0200084F020008CC
:1000D0004F0200084F0200084F0200080000000015
:1000E0004F0200084F0200084F0200080000000005
:1000F0000000000000000000000000004F020008A7
:10010000000000004F0200084F0200084F020008E4
:1001100000000000000000000000000000000000DF
:100120004F0200084F0200084F0200084F0200086B
:100130004F02000800000000000000000000000066
:100140000000000000000000000000004F02000856
:100150004F0200084F0200084F0200084F0200083B
:100160004F0200084F0200080000000000000000DD
:10017000000000000000000000000000000000007F
:10018000000000004F020008000000000000000016
:100190004F02000800F002F800F03CF80AA090E8D6
:1001A000000C82448344AAF10107DA4501D100F032
:1001B00031F8AFF2090EBAE80F0013F0010F18BFC3
:1001C000FB1A43F0010318478C150000AC15000022
:1001D000103A24BF78C878C1FAD8520724BF30C873
:1001E00030C144BF04680C60704700000023002445
:1001F00000250026103A28BF78C1FBD8520728BF37
:1002000030C148BF0B6070471FB501F096FA1FBDA3
:1002100010B510BD00F0CFF81146FFF7F5FF01F063
:100220007FFA00F0EDF803B4FFF7F2FF03BC00F033
:10023000F5F800000948804709480047FEE7FEE757
:10024000FEE7FEE7FEE7FEE7FEE7FEE7FEE7FEE786
:1002500004480549054A064B7047000091150008FF
:100260009501000810010020100700201003002055
:100270001003002053EA020C00F069802DE9F04BD6
:100280004FF00006002B1FBFB3FA83F503FA05F405
:1002900024FA05F65E4012BF1643B2FA82F502FA5E
:1002A00005F4C5F120051EBF22FA05FC44EA0C0442
:1002B000203556EA044C4FEA144418BF641C4FF032
:1002C00000084FF00009904271EB030C39D300296C
:1002D00019BFB1FA81F701FA07F6B0FA80F700FA10
:1002E00007F6C7F120071EBF20FA07FC46EA0C06F6
:1002F0002037B6FBF4FCA7EB0507103F07F01F0BF8
:10030000CBF120060CFA0BFB2CFA06F644BFB346E1
:100310000026202FA4BF5E464FF0000B5BEA060CC0
:1003200008BF4FF0010B19EB0B09ABFB027C48EB4C
:100330000608C01B06FB02CC0BFB03CC71EB0C01C7
:10034000C1E70B46024641464846BDE8F08B13B56F
:100350004FF000004FF00001AFF30080BDE81C40FB
:1003600070474FF0000200B5134694469646203978
:1003700022BFA0E80C50A0E80C50B1F12001BFF45E
:10038000F7AF090728BFA0E80C5048BF0CC05DF8C4
:1003900004EB890028BF40F8042B08BF704748BF12
:1003A00020F8022B11F0804F18BF00F8012B704786
:1003B000704770477047754600F02CF8AE46050050
:1003C0006946534620F00700854618B020B5FFF770
:1003D0003FFFBDE820404FF000064FF000074FF010
:1003E00000084FF0000B21F00701AC46ACE8C00953
:1003F000ACE8C009ACE8C009ACE8C0098D4670475C
:1004000010B50446AFF300802046BDE81040FFF76A
:100410000ABF000000487047B000002001491820C2
:10042000ABBEFEE7260002007047FEE710B5802055
:1004300000F04CF8202000F06BF8202000F068F865
:10044000202000F065F8202000F062F8202000F065
:100450005FF8202000F05CF8202000F059F8202000
:1004600000F056F8202000F053F8202000F050F85B
:10047000202000F04DF8202000F04AF8202000F065
:1004800047F8202000F044F8BDE81040802000F03C
:100490001DB870471CB50022CDE9002207E000BF5F
:1004A000DDE900325B1C42F10002CDE90032DDE9FA
:1004B00000321B1A8A41F3DB1CBD012000F0A6B8F4
:1004C000022000F0A3B8042000F0A0B810B50F4C33
:1004D000616921F001016161616921F002016161DD
:1004E000616921F4FF616161616941EAC000606195
:1004F000606940F00400606119200021FFF7CAFF25
:10050000606920F00400606110BD0000000002403E
:1005100010B50F4C616941F001016161616921F021
:1005200002016161616921F4FF616161616941EA10
:10053000C0006061606940F0040060613220002109
:10054000FFF7A8FF606920F00400606110BD0000A3
:10055000000002402DE9F041294C2A49012813D01E
:1005600002281CD0042848D1082000F0CFF92648E2
:1005700000F076FD00F04EFF00F04EF9214E0546EA
:100580004FF4FA77103E22E0E068002835D1086881
:10059000002832D0BDE8F0411B4800F02BBDE068D8
:1005A00000282AD10868002827D0BDE8F041164865
:1005B00000F056BD0421304600F024F9012806D091
:1005C0001148483000F04CFD0020E06010E000F0E1
:1005D00023F9401BB842EDD30B48483000F00AFD28
:1005E0000120E0600421304600F00CF90128F9D028
:1005F000BDE8F041082000F06FB9BDE8F0810000CF
:10060000000000201004024020000020044910B522
:100610000A68024202D00860FFF79CFF10BD00008C
:10062000143C01402DE9F84FDFF8B8A10022012465
:1006300003254FF00F090AF1040BAAF1040E00BFC5
:100640000B6804FA02F63340B34273D10F7907F016
:100650000307012F01D0022F16D187684FEA420805
:1006600005FA08FC27EA0C07D1F80CC00CFA08FCC4
:100670004CEA070CC0F808C04768B7430E79C6F3C8
:10068000001696403E4346600E79F643B6070DD0FD
:10069000C768560005FA06FC27EA0C07D1F808C01F
:1006A0000CFA06FC4CEA070CC0F80CC00E7906F0F8
:1006B0000306022E10D1D60800EB8608D8F8206079
:1006C00057074FEAD76C09FA0CF7BE430F6907FAD0
:1006D0000CF73743C8F8207006684FEA420C05FA59
:1006E0000CF7BE430F7907F0030707FA0CF73743FF
:1006F00007604E6816F4403F6DD03B4E376847F4B4
:1007000080473760366822F0030706F4804600967B
:10071000364E07EB060CDCF8086897073F0F09FA1E
:1007200007F826EA0806DFF8C880404503D14FF0F5
:1007300000081EE04FE0DFF8BC80404502D14FF0DA
:10074000010816E0DFF8B080404502D14FF0020802
:100750000FE0DFF8A880404502D14FF0030808E021
:10076000DFF89C80404502D14FF0040801E04FF0D3
:10077000070808FA07F848EA0608CCF80888DAF803
:1007800000605746D1F804C09E435FEACC2C00D5E8
:100790001E433E60DBF800605F46D1F804C09E4314
:1007A0005FEA8C2C00D51E433E60DEF80060774681
:1007B000D1F804C09E435FEA8C3C00D51E433E60E6
:1007C000084F083F3E68D1F804C09E435FEACC3C26
:1007D00000D51E433E60521C102AFFF431AFBDE825
:1007E000F88F0000083C01404438024000300140CE
:1007F000000002400004024000080240000C0240D9
:10080000001002400069084000D0012070470AB182
:10081000816170470904FBE7014880687047000068
:1008200010000020024881680278114481607047FE
:10083000100000200B4810B5016841F40071016000
:10084000016841F480610160016841F480710160D8
:10085000032000F089F80F2000F006F800F024F8DB
:10086000002010BD003C024070B50D4D04464FF411
:100870007A712878B1FBF0F00A490968B1FBF0F011
:1008800000F006FB48B9102C07D200222146501E6A
:1008900000F04AF800206C6070BD012070BD0000BF
:1008A000100000201C0000200A4808B5016841F42F
:1008B00080410160006800F4804000900548001FFE
:1008C000016841F080510160006800F080500090A4
:1008D00008BD000044380240002809DB00F01F0278
:1008E000012191404009800000F1E020C0F8801211
:1008F0007047002809DB00F01F02012191404009E8
:10090000800000F1E020C0F800117047002809DBEA
:1009100000F01F02012191404009800000F1E02019
:10092000C0F8001270470000F0B40E4B1B680C4674
:10093000C3F30223C3F10705042D00D90425191DB3
:10094000072901D2002300E0DB1E012606FA05F18B
:10095000491E214099409E40761E16403143F0BC0E
:1009600000F0CEBE0CED00E0064900F0070208687A
:100970004FF6FF03184040EA0220034A1043086084
:10098000704700000CED00E00000FA052DE9F0478B
:100990000E46050065D0DFF81481D8F80000F7B2E4
:1009A00000F00700B04207D288F80070D8F80000C5
:1009B00000F00700B04254D128683D4C810712D5A1
:1009C000400703D5206840F4E050206028780007F5
:1009D00003D5206840F4604020602068A96820F0BA
:1009E000F000084320602878C0072DD0304968689F
:1009F0000839012812D0022813D0032811D0096821
:100A0000890700292DDA216821F0030101432160C3
:100A1000FFF702FF814641F2883A0EE00968890338
:100A2000EFE709688901ECE7FFF7F6FEA0EB0901A3
:100A3000514502D90320BDE8F0872068696800F0BD
:100A40000C00B0EB810FEFD1D8F80010404601F058
:100A50000701B14207D90770006800F00700B042F3
:100A600001D00120E7E72878400705D52068E9682C
:100A700020F4E050084320602878000706D520685D
:100A8000296920F4604040EAC100206000F018F8B5
:100A90002168084AC1F30311515CC8400649086047
:100AA00006480068FFF7E0FE0020C4E7003C024073
:100AB00008380240441700081C00002014000020E1
:100AC000154810B5006810F00C02144813D01449F2
:100AD000042A0FD0082A0ED10F4C241F2268236845
:100AE00002F03F025B0207D52068C0F38810A0FB2C
:100AF000010106E0084610BD2168C1F38811A1FB81
:100B000000010023FFF7B6FB2168C1F30141491C36
:100B10004900B0FBF1F010BD083802400024F40099
:100B200040787D012DE9F84F04006ED02078DFF881
:100B30004C93C007A9F104054AD009F104000168EB
:100B4000C1F38101012908D00068C0F381000228A7
:100B50000AD1D9F80000400206D52868800337D5AD
:100B600060680028E1D033E06068B0F5803F10D0C5
:100B7000B0F5A02F286810D020F4803028602868B5
:100B800020F4802028606068A8B1FFF745FE064683
:100B90000DE0286840F48030F4E740F480202860BD
:100BA000F7E700BFFFF738FE801B642873D828687A
:100BB0008003F7D50CE0FFF72FFE064605E000BFE7
:100BC000FFF72AFE801B6428F0D828688003F7D43A
:100BD0002078DFF8AC8280074FF0000A3ED5A748A6
:100BE000001D016811F00C0F08D00068C0F38100EF
:100BF00002280BD1D9F80000400207D428688007EA
:100C000016D5E068012800D112E033E1E068B8B100
:100C10000120C8F80000FFF7FFFD064605E000BF11
:100C2000FFF7FAFD801B0228C0D828688007F7D597
:100C30002868216920F0F80040EAC10028600DE032
:100C4000C8F800A0FFF7E8FD064604E0FFF7E4FD62
:100C5000801B02281FD828688007F7D42078000757
:100C600022D5864F87486169703771B101210160D3
:100C7000FFF7D2FD064604E0FFF7CEFD801B0228F9
:100C800009D838688007F7D50EE0C0F800A0FFF754
:100C9000C3FD064605E082E0FFF7BEFD801B02288B
:100CA0007DD838688007F7D42078400768D5DFF80A
:100CB000CCB100270BF13C0BDBF80000C0000BD4DB
:100CC000DBF8001041F08051CBF80010DBF8000099
:100CD000012700F0805000906B4E3068C00510D4A2
:100CE000306840F480703060FFF796FD009005E0BA
:100CF000FFF792FD0099401A022850D83068C005CD
:100D0000F6D55E4EA0686C3601280FD005283068F5
:100D100010D020F001003060306820F00400306016
:100D2000A068B8B1FFF778FD00900FE0306840F0A0
:100D30000100F4E740F004003060F7E7FFF76CFDD6
:100D40000099411A41F28830814266D830688007A4
:100D5000F4D50EE0FFF760FD009007E0FFF75CFDC3
:100D60000099411A41F28830814256D83068800794
:100D7000F4D42FB1DBF8001021F08051CBF8001033
:100D8000A069C8B33D49091D0968C1F38101022961
:100D90004AD00228504607D0C8F8600000E03CE086
:100DA000FFF73AFD04463BE04746C8F86000FFF70E
:100DB00033FD064605E000BFFFF72EFD801B02282D
:100DC0002BD828688001F7D4D4E907010843A16A29
:100DD0002E4A490802EB0141626A41EA8211084346
:100DE00094F82C1040EA0161C9F80010012038661F
:100DF000FFF712FD044606E03EE000BFFFF70CFDE2
:100E0000001B022809D828688001F7D534E000BF0C
:100E1000FFF702FD001B022802D90320BDE8F88F6E
:100E200028688001F4D427E00128F7D0D9F8000021
:100E3000E26900F4800191421CD1226A00F03F0176
:100E4000914217D147F6C071626A0140B1EB821F2F
:100E500010D1A26A4FF0FF3300F4403103EB52028D
:100E6000B1EB024F06D194F82C1000F07060B0EB9B
:100E7000016F01D00120D1E70020CFE70438024004
:100E800000004742800E4742007000400000FFFF14
:100E900010B5401EB0F1807F01D3012010BD4FF08E
:100EA000E02460610F21601700F02AFC0020A0619F
:100EB00007202061002010BD70B590F83C20012A69
:100EC0002CD0012480F83C40022280F83D200368A9
:100ED0005A689D6822F070060A6832435A60104BC7
:100EE00002689A420ED0B2F1804F0BD00D4B9A425D
:100EF00008D00D4B9A4205D00C4B9A4202D00C4BB5
:100F00009A4204D1496825F080031943916080F822
:100F10003D40002180F83C10084670BD022070BDA5
:100F2000000001400004004000080040000C0040A8
:100F30000040014010B5040003D094F83D0010B10A
:100F400007E0012010BD002084F83C00204600F09E
:100F50001FF8022084F83D00211D206800F04EFBA0
:100F6000012084F8460084F83E0084F83F0084F8AD
:100F7000400084F8410084F8420084F8430084F87B
:100F8000440084F8450084F83D00002010BD0000B6
:100F900008B5154A0168154891420ED1016841F023
:100FA000020101600068002200F00200009011467A
:100FB0001D20FFF7B9FC1D2010E00D4A914211D110
:100FC000016841F0040101600068002200F00400A3
:100FD000009011461E20FFF7A7FC1E20BDE8084028
:100FE000FFF787BC08BD0000000400404038024005
:100FF0000008004090F83D10012901D00120704701
:10100000022180F83D100168CA6842F00102CA60FE
:1010100000680E4988420ED0B0F1804F0BD00C49C9
:10102000884208D00B49884205D00B49884202D03B
:101030000A49884204D1816801F00701062903D0DA
:10104000016841F00101016000207047000001408B
:101050000004004000080040000C00400040014037
:101060000168CA6822F00102CA6001680A6A41F296
:1010700011131A4207D10A6A9B101A4203D10A6857
:1010800022F001020A60012180F83D100020704723
:1010900070B5044690F83C000025012817D00126C1
:1010A00084F83C60022084F83D002068826822F0C9
:1010B000770222F47F4282600868502838D00DDC25
:1010C00020284FD005DC90B3102811D14AE002202F
:1010D00070BD302846D040280AD13BE060282FD090
:1010E00070280DD0B0F5805F03D0B0F5005F12D04E
:1010F000012584F83D60002084F83C00284670BD3E
:10110000CB68D1E90121206800F0C4FA2068816829
:1011100041F0770109E0CB68D1E90121206800F0B6
:10112000B9FA2068816841F480418160E1E719E003
:10113000CA684968206800F0BFFA5021206806E0BC
:10114000CA684968206800F0C8FA6021206800F089
:10115000ABFACEE7CA684968206800F0ADFA4021D2
:101160002068F4E7226801461046F0E7FEE7000039
:101170000A4800228168FA318160B1F57A7F01DA8C
:10118000416803E082604168491C41603B2903DDFE
:1011900042600168491C01607047000000000020A7
:1011A00010B543F698200021FFF774F93020FFF7BF
:1011B0008DF941F288300021FFF76CF93020FFF7FC
:1011C00085F94FF4FA7420460021FFF763F93020C7
:1011D000FFF77CF920460021FFF75CF93020FFF78C
:1011E00075F93020FFF772F93020FFF76FF92046CC
:1011F0000021FFF74FF93820FFF768F9204600215A
:10120000FFF748F90620FFF761F90120FFF75EF9C3
:1012100020460021FFF73EF98020FFF757F92046CE
:101220000021FFF737F90F20FFF750F92046002182
:10123000FFF730F95720FFF76BF94520FFF768F902
:101240004C20FFF765F94320FFF762F94F20FFF7C5
:101250005FF94D20FFF75CF94520FFF759F920466B
:10126000BDE810400021FFF715B9000070B586B049
:1012700014216846FFF775F82B480024016841F0F7
:1012800001010160016801F001010591016841F06F
:10129000020101600068254E00F0020040F2FF7577
:1012A0000590224629463046FFF7B1FA0120009505
:1012B000CDE90104694630460394FFF7B3F90320F2
:1012C00000904FF40410CDE90104194D69462846F9
:1012D000FFF7A8F9042000904FF44410CDE9010471
:1012E00069462846FFF79EF901220A210620FFF7EA
:1012F0001BFB0620FFF7FDFA01220A210720FFF75A
:1013000013FB0720FFF7F5FA01220A210820FFF757
:101310000BFB0820FFF7EDFA00221146501EFFF7E5
:1013200003FB06B070BD00003038024000000240F0
:101330000004024010B586B00024184800940194BF
:1013400002940394049414490594016041F63F719A
:10135000C0E90114F921C1604FF400718461016199
:10136000FFF7E8FD08B172B6FEE74FF48050009039
:1013700069460A48FFF78CFE08B172B6FEE704948E
:1013800004A906480594FFF797FD002801D072B61E
:10139000FEE706B010BD0000000400402000002061
:1013A00010B586B000241848009401940294039468
:1013B000049414490594016041F63F71C0E9011499
:1013C0000911C1604FF4007184610161FFF7B2FD42
:1013D00008B172B6FEE74FF48050009069460A48A3
:1013E000FFF756FE08B172B6FEE7049404A906485A
:1013F0000594FFF761FD002801D072B6FEE706B044
:1014000010BD00000008004068000020FEE7FEE775
:1014100070470000064810B50021816041600160FE
:101420008020FFF753F8BDE8104000F031B800000D
:10143000000000207047000070B5041E07D003DADA
:101440002D20FFF765F8644201250A260EE0BDE86D
:1014500070403020FFF75CB894FBF6F106FB1141B9
:1014600094FBF6F405EB850001EB4005002CF3DC62
:101470000AE000BF95FBF6F006FB10503030C0B21A
:10148000FFF746F895FBF6F5012DF3DC70BD000083
:1014900070B51C4C0A25206890FBF5F0FFF7CCFFD7
:1014A000206890FBF5F105FB1100FFF7C5FF3A201E
:1014B000FFF72EF8606890FBF5F0FFF7BDFF60685E
:1014C00090FBF5F105FB1100FFF7B6FF3A20FFF79F
:1014D0001FF8A068642690FBF6F0FFF7ADFFA06848
:1014E00090FBF6F106FB110090FBF5F0FFF7A4FF6F
:1014F000A06890FBF5F105FB1100BDE87040FFF717
:101500009BBF000000000020FFF78CB910B592B01F
:1015100030216846FEF725FF14210CA8FEF721FFB5
:1015200019480024016841F080510160006800F012
:10153000805011901548016821F4404141F4004168
:1015400001600068069400F4404011900220009071
:1015500001200390102004906846FFF7E3FA08B1D9
:1015600072B6FEE70F20CDE90C044FF4A050CDE990
:101570000E40109000210CA8FFF708FA002801D0B7
:1015800072B6FEE712B010BD403802400070004055
:101590000248016841F470010160704788ED00E085
:1015A00010B58020FEF792FFFFF7E2FDBDE8104086
:1015B000FFF76EBF10B5FEF739FF8020FEF786FFFC
:1015C0000A200021FEF766FF5420FEF7A1FF5520F8
:1015D000FEF79EFF5220FEF79BFF4E20FEF798FF7E
:1015E0002020FEF795FF4F20FEF792FF4620FEF7E2
:1015F0008FFFBDE810404620FEF78ABFF0B50268B5
:101600001D4B1E4C9F031E4D1E4E984207D0B842E4
:1016100005D0A04203D0A84201D0B04204D122F0AC
:10162000700C4A6842EA0C02984210D0B8420ED0C0
:10163000A0420CD0A8420AD0B04208D0124CA0421E
:1016400005D0124CA04202D0114CA04203D122F48A
:101650004074CA6822434C6922F08002224302602F
:101660008A68C2620A688262984201D1096901638C
:1016700001214161F0BD0000000001400004004074
:1016800000080040000C00400040014000440140C0
:101690000048014010B5846842EA032224F47F44E4
:1016A0000A432243826010BD826822F070020A431E
:1016B00042F007018160704710B5036A046A24F0A4
:1016C00001040462846924F0F00444EA021423F063
:1016D0000A020A438461026210BD10B5036A23F056
:1016E000100303628369046A23F4704343EA0232FD
:1016F00024F0A00343EA01118261016210BDFEE7FC
:101700000907090E002804DB00F1E02080F800142E
:10171000704700F00F0000F1E02080F8141D7047C2
:10172000FFF788F8FFF7F2FEFFF7A0FDFFF702FED4
:10173000FFF736FEFFF734FDFEE74FF04070E1EEB5
:10174000100A7047000000000000000001020304BE
:101750000607080974170008000000202000000098
:10176000D00100089417000820000020F0060000B7
:10177000EC01000800000000000000000000000074
:101780000000000001000000100000000000000048
:041790000024F4003D
:040000050800019559
:00000001FF
