:020000040800F2
:1000000098060020350200083D0200083F02000863
:1000100041020008430200084502000800000000F9
:10002000000000000000000000000000470200087F
:1000300049020008000000004B0200084D020008C1
:100040004F0200084F0200084F0200084F0200084C
:100050004F0200084F020008550400087D05000803
:10006000A5060008CD070008A50800084F020008F3
:100070004F0200084F0200084F0200084F0200081C
:100080004F0200084F0200084F0200080000000065
:10009000000000000000000000000000010900084E
:1000A0004F0200084F0200084F0200084F020008EC
:1000B0004F0200084F0200084F0200084F020008DC
:1000C0004F0200084F0200084F0200084F020008CC
:1000D0004F0200084F0200084F0200080000000015
:1000E0004F0200084F0200084F0200080000000005
:1000F0000000000000000000000000004F020008A7
:10010000000000004F0200084F0200084F020008E4
:1001100000000000000000000000000000000000DF
:100120004F0200084F0200084F0200084F0200086B
:100130004F02000800000000000000000000000066
:100140000000000000000000000000004F02000856
:100150004F0200084F0200084F0200084F0200083B
:100160004F0200084F0200080000000000000000DD
:10017000000000000000000000000000000000007F
:10018000000000004F020008000000000000000016
:100190004F02000800F002F800F03CF80AA090E8D6
:1001A000000C82448344AAF10107DA4501D100F032
:1001B00031F8AFF2090EBAE80F0013F0010F18BFC3
:1001C000FB1A43F001031847E00C0000000D00008B
:1001D000103A24BF78C878C1FAD8520724BF30C873
:1001E00030C144BF04680C60704700000023002445
:1001F00000250026103A28BF78C1FBD8520728BF37
:1002000030C148BF0B6070471FB500F038FE1FBDFE
:1002100010B510BD00F0E3F81146FFF7F5FF00F050
:100220005BFD00F001F903B4FFF7F2FF03BC00F03F
:1002300009F900000948804709480047FEE7FEE742
:10024000FEE7FEE7FEE7FEE7FEE7FEE7FEE7FEE786
:1002500004480549054A064B70470000950A000806
:1002600095010008980000209806002098020020C0
:100270009802002053EA020C23D010B54C1084EAF7
:10028000530404D54042C1F1000138BF491E1B424E
:1002900004D55242C3F1000338BF5B1E00F027F8BB
:1002A00014F0804F04D04042C1F1000138BF491E14
:1002B00014F0004F04D05242C3F1000338BF5B1E5C
:1002C00010BD13B540424FF0000070EB0104B8BF01
:1002D000012001F0004100281CBF6FF000414FF0E9
:1002E000FF30AFF300801CBD70477047704753EA82
:1002F000020C00F069802DE9F04B4FF00006002B56
:100300001FBFB3FA83F503FA05F424FA05F65E403D
:1003100012BF1643B2FA82F502FA05F4C5F12005C0
:100320001EBF22FA05FC44EA0C04203556EA044CB0
:100330004FEA144418BF641C4FF000084FF0000946
:10034000904271EB030C39D3002919BFB1FA81F740
:1003500001FA07F6B0FA80F700FA07F6C7F12007AE
:100360001EBF20FA07FC46EA0C062037B6FBF4FC59
:10037000A7EB0507103F07F01F0BCBF120062CFA67
:1003800006F60CFA0BFB44BFB3460026202FA4BF91
:100390005E464FF0000B5BEA060C08BF4FF0010B06
:1003A00019EB0B0948EB0608ABFB027C06FB02CC01
:1003B0000BFB03CCC01B71EB0C01C1E70B460246E3
:1003C00041464846BDE8F08B13B5084318BF4FF0CF
:1003D000FF300146AFF30080BDE81C407047754612
:1003E00000F02CF8AE4605006946534620F00700A1
:1003F000854618B020B5FFF72BFFBDE820404FF031
:1004000000064FF000074FF000084FF0000BAC461D
:10041000ACE8C009ACE8C009ACE8C009ACE8C00968
:1004200021F007018D46704710B50446AFF30080F8
:100430002046BDE81040FFF7F6BE000000487047B8
:100440000800002001491820ABBEFEE7260002008C
:100450007047000010B543F61440C4F20100016873
:1004600041F001010160062000F01EFB40F268002F
:10047000C2F200000068032888BF10BDDFE800F06A
:1004800002582446372000F08DFA40F27800C2F27C
:100490000000D0E900010A23084307BF40F27000C2
:1004A000C2F2000040F28800C2F20000D0E900125F
:1004B000A1FB031302EB820203EB4202C0E900122C
:1004C000D0E90012073154E0392000F06BFA40F215
:1004D0007800C2F20000D0E900010A23084307BFF8
:1004E00040F27000C2F2000040F28800C2F2000048
:1004F000D0E90012A1FB031302EB820203EB4202DC
:10050000C0E90012D0E90012093132E02F202F2477
:1005100000F048FA40F27800C2F200000021012207
:10052000C0E9002140F20000C2F20000047010BDDA
:10053000382000F037FA40F27800C2F20000D0E92B
:1005400000010A23084307BF40F27000C2F2000016
:1005500040F28800C2F20000D0E90012A1FB0313B0
:1005600002EB820203EB4202C0E90012D0E9001262
:10057000083142F10002C0E9001210BD10B543F687
:100580001440C4F20100016841F00201016007203B
:1005900000F08AFA40F26800C2F200000068032806
:1005A00088BF10BDDFE800F002582446342000F078
:1005B000F9F940F27800C2F20000D0E900010A2304
:1005C000084307BF40F27000C2F2000040F288000A
:1005D000C2F20000D0E90012A1FB031302EB820279
:1005E00003EB4202C0E90012D0E90012043154E0EA
:1005F000362000F0D7F940F27800C2F20000D0E9CE
:1006000000010A23084307BF40F27000C2F2000055
:1006100040F28800C2F20000D0E90012A1FB0313EF
:1006200002EB820203EB4202C0E90012D0E90012A1
:10063000063132E02A202A2400F0B4F940F2780092
:10064000C2F2000000210122C0E9002140F20000B6
:10065000C2F20000047010BD352000F0A3F940F292
:100660007800C2F20000D0E900010A23084307BF66
:1006700040F27000C2F2000040F28800C2F20000B6
:10068000D0E90012A1FB031302EB820203EB42024A
:10069000C0E90012D0E90012053142F10002C0E9C0
:1006A000001210BD10B543F61440C4F201000168F9
:1006B00041F004010160082000F0F6F940F2680002
:1006C000C2F200000068032888BF10BDDFE800F018
:1006D00002582446312000F065F940F27800C2F259
:1006E0000000D0E900010A23084307BF40F2700070
:1006F000C2F2000040F28800C2F20000D0E900120D
:10070000A1FB031302EB820203EB4202C0E90012D9
:10071000D0E90012013154E0332000F043F940F2F7
:100720007800C2F20000D0E900010A23084307BFA5
:1007300040F27000C2F2000040F28800C2F20000F5
:10074000D0E90012A1FB031302EB820203EB420289
:10075000C0E90012D0E90012033132E02D202D242F
:1007600000F020F940F27800C2F2000000210122DE
:10077000C0E9002140F20000C2F20000047010BD88
:10078000322000F00FF940F27800C2F20000D0E908
:1007900000010A23084307BF40F27000C2F20000C4
:1007A00040F28800C2F20000D0E90012A1FB03135E
:1007B00002EB820203EB4202C0E90012D0E9001210
:1007C000023142F10002C0E9001210BD10B543F63B
:1007D0001440C4F20100016841F0080101600920E1
:1007E00000F062F940F26800C2F2000000680328DD
:1007F00088BF10BDDFE800F002321920012000F0B0
:10080000ADF840F27000C2F200000021C0E9001112
:1008100040F28800C2F20000C0E9001140F2780006
:10082000C2F20000C0E9001110BD40F26C00C2F23B
:1008300000000121016010BD2B202B2400F0B2F834
:1008400040F27800C2F2000000210122C0E900213C
:1008500040F20000C2F20000047010BD302000F031
:10086000A1F840F27800C2F20000D0E900010A23AA
:10087000084307BF40F27000C2F2000040F2880057
:10088000C2F20000D0E90012A1FB031302EB8202C6
:1008900003EB4202C0E90012D0E90012C0E90012E5
:1008A00010BD000080B543F61440C4F20100016899
:1008B00041F0100101600A2000F0F6F840F27000EB
:1008C000C2F20000D0E90012013962F10002C0E971
:1008D000001240F27801C2F200010022C1E90022B8
:1008E00040F28801C2F20001C1E9002240F26C012D
:1008F000C2F200010A60D0E9000100F077F880BD83
:1009000080B543F61440C4F20100016841F02001B3
:100910000160172000F0C8F840F27000C2F2000039
:10092000D0E90012013142F10002C0E9001240F2A8
:100930007801C2F200010022C1E9002240F28801E0
:10094000C2F20001C1E9002240F26C01C2F20001D2
:100950000A60D0E9000100F049F880BD70B51426A6
:10096000C4F202063168044621F0030131603168A7
:100970000D2501F007013160316841EAC0003060A7
:10098000306840F0040030600D2000F001F930685C
:10099000042C20F00400306038BF1A25284600F0EF
:1009A000F7F870BD10B51424C4F20204216841F0B8
:1009B00001012160216821F002012160216801F01C
:1009C00007012160216841EAC0002060206840F0F2
:1009D000040020600D2000F0DBF8206820F0040007
:1009E00020600D2000F0D4F810BD00002DE9F0418A
:1009F0000546C0200C46FFF7B1FF0D2000F0C8F8F7
:100A000055EA040041D0B4F1FF3F07DC2D20FFF789
:100A1000C9FF6D424FF0000060EB040428462146F8
:100A200000F09AF90446013871F1000019DB0D4617
:100A30004FF00008204629460A220023FFF71AFC3F
:100A4000064600EB8000A4EB40003030C0B20F46F9
:100A5000FFF7A8FFD4F1090078EB050034463D46C6
:100A6000E8DB40F29004C2F200042068002808BFCE
:100A7000BDE8F0813020FFF795FF20680138206045
:100A800020680028F6D1BDE8F0813020FFF78AFF0A
:100A9000BDE8F0814EF68850CEF20000016841F4C6
:100AA000700101607047000000F01F00012101FA91
:100AB00000F04EF28021CEF2000108607047000085
:100AC00000F01F00012101FA00F04EF20011CEF2F9
:100AD000000108607047000070B540F20000C2F2EB
:100AE0000000007840F280042A3840F2700640F29C
:100AF00088050528C2F20004C2F20006C2F2000511
:100B000025D8DFE800F0030E2415241CD6E9001ECA
:100B1000D5E9003CA3FB010203FB0E220CFB0121E3
:100B200013E0D6E90001D5E90023801859410CE013
:100B3000D6E90001D5E90023801A994105E0D6E9FC
:100B40000001D5E90023FFF795FBC4E90001D4E9D2
:100B50000001C6E9000140F27800C2F20000002165
:100B6000C0E9001140F26C00C2F20000C5E90011BA
:100B70000160C020FFF7F2FE102500BF2020FFF724
:100B800011FF013DFAD1D4E90001FFF72FFF70BD3D
:100B900081B0012815DB4FF0000C40F6B73240F66B
:100BA000B83301E001380CDDCDF800C00099914266
:100BB000F8DC00BF00990131009100999942F9DBFE
:100BC000F0E701B07047000080B543F60040C4F282
:100BD0000100016841F001010160016841F002017A
:100BE0000160016841F004010160016841F0080101
:100BF0000160016841F010010160016841F02001CD
:100C00000160816841F001018160816841F0020169
:100C10008160816841F004018160816841F00801D0
:100C20008160816841F010018160816841F020019C
:100C3000816062B60620FFF737FF0720FFF734FF19
:100C40000820FFF731FF0920FFF72EFF0A20FFF7EA
:100C50002BFF1720FFF728FF0620FFF731FF0720A3
:100C6000FFF72EFF0820FFF72BFF0920FFF728FFD3
:100C70000A20FFF725FF1720FFF722FF80BD0000A5
:100C800080B500F023F84FF4C870FFF781FF3020E3
:100C9000FFF764FE6420FFF77BFF3020FFF75EFE66
:100CA0000A20FFF775FF3020FFF758FE3820FFF7C6
:100CB00055FE0620FFF752FE0120FFF74FFE802071
:100CC000FFF74CFE0F20FFF749FE80BD80B500F016
:100CD00093F8FFF779FF80BD40F21444C4F2020498
:100CE000FFF7CEFF00F024F8C020FFF737FE40F2F8
:100CF000680540F26C07C2F200051026C2F2000738
:100D0000206800F00F0020602868013000F0030028
:100D100028602868216806FA00F0084320603868D7
:100D2000012808BFFFF7D8FE1920FFF731FFE7E7DA
:100D3000B0B540F69860C0F60000441E0F2500BF15
:100D400014F8010FFFF72EFE013DF9D14FF4FA70B0
:100D5000FFF71EFFB0BD00002DE9F04740F29006FE
:100D60000D460446C2F20006002000BF3060204657
:100D70000A220023FFF77EFA52EA03000AD1204636
:100D800029460A220023FFF775FA044630680D460B
:100D90000130EBE7601E75F100004FF0000826DB24
:100DA0004FF00A0900200021A0FB09A001EB8101FE
:100DB00000EB4107204629460A220023FFF75AFA92
:100DC0000246A0FB09060B4601EB810106EB41013F
:100DD000201A65EB010110EB0A007941D4F10907F3
:100DE00078EB050714461D46DEDBBDE8F0870020E2
:100DF0000021BDE8F087000043F63000C4F2020095
:100E0000016845F2555241F0010101600021C4F230
:100E10000201C0F255020A6000224A60CA604A61BB
:100E2000036843F0020303604FF4AA43C1F800349F
:100E3000036843F004030360C1F80028416941F4EA
:100E40008041416143F60800C4F20100016841F0AD
:100E500001010160016841F010010160016841F485
:100E600080710160016841F480510160416841F086
:100E700002014160416841F0200141607047F1EE9C
:100E8000100A4FF6FF71C0F2C03120EA010040F0B5
:100E90004070E1EE100A70474D6F75736176692DF1
:100EA0004D6F726164694A00C80E0008000000209E
:100EB00008000000D0010008D00E00080800002043
:100EC00090060000EC010008300000000000000067
:040000050800019559
:00000001FF
